{
  "contractName": "VendingMachine",
  "abi": [
    {
      "inputs": [],
      "stateMutability": "nonpayable",
      "type": "constructor"
    },
    {
      "inputs": [
        {
          "internalType": "address",
          "name": "",
          "type": "address"
        }
      ],
      "name": "VMBalances",
      "outputs": [
        {
          "internalType": "uint256",
          "name": "",
          "type": "uint256"
        }
      ],
      "stateMutability": "view",
      "type": "function",
      "constant": true
    },
    {
      "inputs": [],
      "name": "owner",
      "outputs": [
        {
          "internalType": "address",
          "name": "",
          "type": "address"
        }
      ],
      "stateMutability": "view",
      "type": "function",
      "constant": true
    },
    {
      "inputs": [],
      "name": "getInventoryBalance",
      "outputs": [
        {
          "internalType": "uint256",
          "name": "",
          "type": "uint256"
        }
      ],
      "stateMutability": "view",
      "type": "function",
      "constant": true
    },
    {
      "inputs": [],
      "name": "getBuyerBalance",
      "outputs": [
        {
          "internalType": "uint256",
          "name": "",
          "type": "uint256"
        }
      ],
      "stateMutability": "view",
      "type": "function",
      "constant": true
    },
    {
      "inputs": [
        {
          "internalType": "uint256",
          "name": "amount",
          "type": "uint256"
        }
      ],
      "name": "restock",
      "outputs": [],
      "stateMutability": "nonpayable",
      "type": "function"
    },
    {
      "inputs": [
        {
          "internalType": "uint256",
          "name": "amount",
          "type": "uint256"
        }
      ],
      "name": "purchase",
      "outputs": [],
      "stateMutability": "payable",
      "type": "function",
      "payable": true
    }
  ],
  "bytecode": "0x608060405234801561001057600080fd5b50336000806101000a81548173ffffffffffffffffffffffffffffffffffffffff021916908373ffffffffffffffffffffffffffffffffffffffff1602179055506064600160003073ffffffffffffffffffffffffffffffffffffffff1673ffffffffffffffffffffffffffffffffffffffff16815260200190815260200160002081905550610849806100a56000396000f3fe6080604052600436106100555760003560e01c80632caf76411461005a5780638da5cb5b14610097578063c21a702a146100c2578063d9978865146100eb578063e2009ea114610116578063efef39a114610141575b600080fd5b34801561006657600080fd5b50610081600480360381019061007c91906104bf565b61015d565b60405161008e919061066a565b60405180910390f35b3480156100a357600080fd5b506100ac610175565b6040516100b991906105ef565b60405180910390f35b3480156100ce57600080fd5b506100e960048036038101906100e491906104e8565b610199565b005b3480156100f757600080fd5b50610100610280565b60405161010d919061066a565b60405180910390f35b34801561012257600080fd5b5061012b6102c7565b604051610138919061066a565b60405180910390f35b61015b600480360381019061015691906104e8565b61030e565b005b60016020528060005260406000206000915090505481565b60008054906101000a900473ffffffffffffffffffffffffffffffffffffffff1681565b60008054906101000a900473ffffffffffffffffffffffffffffffffffffffff1673ffffffffffffffffffffffffffffffffffffffff163373ffffffffffffffffffffffffffffffffffffffff1614610227576040517f08c379a000000000000000000000000000000000000000000000000000000000815260040161021e9061062a565b60405180910390fd5b80600160003073ffffffffffffffffffffffffffffffffffffffff1673ffffffffffffffffffffffffffffffffffffffff16815260200190815260200160002060008282546102769190610696565b9250508190555050565b6000600160003373ffffffffffffffffffffffffffffffffffffffff1673ffffffffffffffffffffffffffffffffffffffff16815260200190815260200160002054905090565b6000600160003073ffffffffffffffffffffffffffffffffffffffff1673ffffffffffffffffffffffffffffffffffffffff16815260200190815260200160002054905090565b80600160003073ffffffffffffffffffffffffffffffffffffffff1673ffffffffffffffffffffffffffffffffffffffff168152602001908152602001600020541015610390576040517f08c379a00000000000000000000000000000000000000000000000000000000081526004016103879061060a565b60405180910390fd5b67016345785d8a0000816103a491906106ec565b3410156103e6576040517f08c379a00000000000000000000000000000000000000000000000000000000081526004016103dd9061064a565b60405180910390fd5b80600160003073ffffffffffffffffffffffffffffffffffffffff1673ffffffffffffffffffffffffffffffffffffffff16815260200190815260200160002060008282546104359190610746565b9250508190555080600160003373ffffffffffffffffffffffffffffffffffffffff1673ffffffffffffffffffffffffffffffffffffffff168152602001908152602001600020600082825461048b9190610696565b9250508190555050565b6000813590506104a4816107e5565b92915050565b6000813590506104b9816107fc565b92915050565b6000602082840312156104d157600080fd5b60006104df84828501610495565b91505092915050565b6000602082840312156104fa57600080fd5b6000610508848285016104aa565b91505092915050565b61051a8161077a565b82525050565b600061052d601d83610685565b91507f6e6f20646f6e74757320657175616c20746865736520616d6f756e74730000006000830152602082019050919050565b600061056d601b83610685565b91507f7468652073656e646572206973206e6f7420746865206f776e657200000000006000830152602082019050919050565b60006105ad601f83610685565b91507f56616c7565206973206c657373207468616e20646f6e757473207072696365006000830152602082019050919050565b6105e9816107ac565b82525050565b60006020820190506106046000830184610511565b92915050565b6000602082019050818103600083015261062381610520565b9050919050565b6000602082019050818103600083015261064381610560565b9050919050565b60006020820190508181036000830152610663816105a0565b9050919050565b600060208201905061067f60008301846105e0565b92915050565b600082825260208201905092915050565b60006106a1826107ac565b91506106ac836107ac565b9250827fffffffffffffffffffffffffffffffffffffffffffffffffffffffffffffffff038211156106e1576106e06107b6565b5b828201905092915050565b60006106f7826107ac565b9150610702836107ac565b9250817fffffffffffffffffffffffffffffffffffffffffffffffffffffffffffffffff048311821515161561073b5761073a6107b6565b5b828202905092915050565b6000610751826107ac565b915061075c836107ac565b92508282101561076f5761076e6107b6565b5b828203905092915050565b60006107858261078c565b9050919050565b600073ffffffffffffffffffffffffffffffffffffffff82169050919050565b6000819050919050565b7f4e487b7100000000000000000000000000000000000000000000000000000000600052601160045260246000fd5b6107ee8161077a565b81146107f957600080fd5b50565b610805816107ac565b811461081057600080fd5b5056fea26469706673582212208bb328db5475cb2c083ec01099eab2051330b54eb303a25172c5cd79bdc89e6b64736f6c63430008000033",
  "immutableReferences": {},
  "source": "// SPDX-License-Identifier: GPL-3.0\r\npragma solidity ^0.8.0;\r\n\r\ncontract VendingMachine{\r\n    address public owner;\r\n    mapping (address =>uint) public VMBalances;\r\n\r\n    constructor () {\r\n        owner=msg.sender;\r\n        VMBalances[address(this)]=100;\r\n    }\r\n\r\n    function getInventoryBalance() public view returns(uint) {\r\n        return VMBalances[address(this)];\r\n    }\r\n\r\n    function getBuyerBalance() public view returns(uint) {\r\n        return VMBalances[msg.sender];\r\n    }\r\n\r\n    modifier onlyOwner () {\r\n        require(msg.sender == owner, \"the sender is not the owner\");\r\n        _;\r\n    }\r\n\r\n    function restock(uint amount) public onlyOwner {\r\n        VMBalances[address(this)] +=amount;\r\n    }\r\n\r\n    function purchase(uint amount) public payable  {\r\n        require(VMBalances[address(this)] >= amount ,\"no dontus equal these amounts\");\r\n        require(msg.value >= amount * 0.1 ether ,\"Value is less than donuts price\");\r\n        VMBalances[address(this)] -=amount;\r\n        VMBalances[msg.sender] +=amount;\r\n    }\r\n\r\n}\r\n",
  "sourcePath": "D:\\SolProjects\\Vending_Machine\\vending_machine\\src\\contracts\\VendingMachine.sol",
  "compiler": {
    "name": "solc",
    "version": "0.8.0+commit.c7dfd78e.Emscripten.clang"
  },
  "schemaVersion": "3.4.3",
  "updatedAt": "2022-04-06T00:11:09.639Z",
  "networkType": "ethereum",
  "devdoc": {
    "kind": "dev",
    "methods": {},
    "version": 1
  },
  "userdoc": {
    "kind": "user",
    "methods": {},
    "version": 1
  }
}