{
  "contractName": "VendingMachine",
  "abi": [
    {
      "inputs": [],
      "stateMutability": "nonpayable",
      "type": "constructor"
    },
    {
      "inputs": [],
      "name": "owner",
      "outputs": [
        {
          "internalType": "address",
          "name": "",
          "type": "address"
        }
      ],
      "stateMutability": "view",
      "type": "function",
      "constant": true
    },
    {
      "inputs": [],
      "name": "getInventoryBalance",
      "outputs": [
        {
          "internalType": "uint256",
          "name": "",
          "type": "uint256"
        }
      ],
      "stateMutability": "view",
      "type": "function",
      "constant": true
    },
    {
      "inputs": [
        {
          "internalType": "uint256",
          "name": "amount",
          "type": "uint256"
        }
      ],
      "name": "restock",
      "outputs": [],
      "stateMutability": "nonpayable",
      "type": "function"
    },
    {
      "inputs": [
        {
          "internalType": "uint256",
          "name": "amount",
          "type": "uint256"
        }
      ],
      "name": "purchase",
      "outputs": [],
      "stateMutability": "payable",
      "type": "function",
      "payable": true
    }
  ],
  "bytecode": "0x608060405234801561001057600080fd5b50336000806101000a81548173ffffffffffffffffffffffffffffffffffffffff021916908373ffffffffffffffffffffffffffffffffffffffff1602179055506064600160003073ffffffffffffffffffffffffffffffffffffffff1673ffffffffffffffffffffffffffffffffffffffff168152602001908152602001600020819055506105eb806100a56000396000f3fe60806040526004361061003f5760003560e01c80638da5cb5b14610044578063c21a702a1461006f578063e2009ea114610098578063efef39a1146100c3575b600080fd5b34801561005057600080fd5b506100596100df565b60405161006691906103e8565b60405180910390f35b34801561007b57600080fd5b5061009660048036038101906100919190610361565b610103565b005b3480156100a457600080fd5b506100ad6101ea565b6040516100ba9190610423565b60405180910390f35b6100dd60048036038101906100d89190610361565b610231565b005b60008054906101000a900473ffffffffffffffffffffffffffffffffffffffff1681565b60008054906101000a900473ffffffffffffffffffffffffffffffffffffffff1673ffffffffffffffffffffffffffffffffffffffff163373ffffffffffffffffffffffffffffffffffffffff1614610191576040517f08c379a000000000000000000000000000000000000000000000000000000000815260040161018890610403565b60405180910390fd5b80600160003073ffffffffffffffffffffffffffffffffffffffff1673ffffffffffffffffffffffffffffffffffffffff16815260200190815260200160002060008282546101e0919061044f565b9250508190555050565b6000600160003073ffffffffffffffffffffffffffffffffffffffff1673ffffffffffffffffffffffffffffffffffffffff16815260200190815260200160002054905090565b80600160003073ffffffffffffffffffffffffffffffffffffffff1673ffffffffffffffffffffffffffffffffffffffff16815260200190815260200160002054101561027d57600080fd5b67016345785d8a00008161029191906104a5565b34101561029d57600080fd5b80600160003073ffffffffffffffffffffffffffffffffffffffff1673ffffffffffffffffffffffffffffffffffffffff16815260200190815260200160002060008282546102ec91906104ff565b9250508190555080600160003373ffffffffffffffffffffffffffffffffffffffff1673ffffffffffffffffffffffffffffffffffffffff1681526020019081526020016000206000828254610342919061044f565b9250508190555050565b60008135905061035b8161059e565b92915050565b60006020828403121561037357600080fd5b60006103818482850161034c565b91505092915050565b61039381610533565b82525050565b60006103a6601b8361043e565b91507f7468652073656e646572206973206e6f7420746865206f776e657200000000006000830152602082019050919050565b6103e281610565565b82525050565b60006020820190506103fd600083018461038a565b92915050565b6000602082019050818103600083015261041c81610399565b9050919050565b600060208201905061043860008301846103d9565b92915050565b600082825260208201905092915050565b600061045a82610565565b915061046583610565565b9250827fffffffffffffffffffffffffffffffffffffffffffffffffffffffffffffffff0382111561049a5761049961056f565b5b828201905092915050565b60006104b082610565565b91506104bb83610565565b9250817fffffffffffffffffffffffffffffffffffffffffffffffffffffffffffffffff04831182151516156104f4576104f361056f565b5b828202905092915050565b600061050a82610565565b915061051583610565565b9250828210156105285761052761056f565b5b828203905092915050565b600061053e82610545565b9050919050565b600073ffffffffffffffffffffffffffffffffffffffff82169050919050565b6000819050919050565b7f4e487b7100000000000000000000000000000000000000000000000000000000600052601160045260246000fd5b6105a781610565565b81146105b257600080fd5b5056fea264697066735822122014a0a0ef909e9d67cc4dc175252d5a3b4aa1b8a7242450f67fbc9151c1b4b01164736f6c63430008000033",
  "immutableReferences": {},
  "source": "pragma solidity ^0.8.0;\r\n\r\ncontract VendingMachine{\r\n\r\n    address public owner;\r\n    mapping (address =>uint) VMBalances;\r\n\r\n    constructor () {\r\n        owner=msg.sender;\r\n        VMBalances[address(this)]=100;\r\n    }\r\n\r\n    function getInventoryBalance() public view returns(uint) {\r\n        return VMBalances[address(this)];\r\n    }\r\n\r\n    modifier onlyOwner () {\r\n        require(msg.sender == owner, \"the sender is not the owner\");\r\n        _;\r\n    }\r\n\r\n    function restock(uint amount) public onlyOwner {\r\n        VMBalances[address(this)] +=amount;\r\n    }\r\n\r\n    function purchase(uint amount) public payable  {\r\n        require(VMBalances[address(this)] >= amount);\r\n        require(msg.value >= amount * 0.1 ether);\r\n        VMBalances[address(this)] -=amount;\r\n        VMBalances[msg.sender] +=amount;\r\n    }\r\n\r\n}\r\n",
  "sourcePath": "D:\\SolProjects\\Vending_Machine\\vending_machine\\src\\contracts\\VendingMachine.sol",
  "compiler": {
    "name": "solc",
    "version": "0.8.0+commit.c7dfd78e.Emscripten.clang"
  },
  "schemaVersion": "3.4.3",
  "updatedAt": "2022-04-05T21:42:02.254Z",
  "networkType": "ethereum",
  "devdoc": {
    "kind": "dev",
    "methods": {},
    "version": 1
  },
  "userdoc": {
    "kind": "user",
    "methods": {},
    "version": 1
  }
}